:10051C004D424954450053505552004D484F4C459F
:10052C000053484F5254004F50454E0053434F50C8
:10053C00004E47202020202020202020202020207A
:10054C00200050434220494E5350454354494F4E8E
:10055C0020200053595354454D20524541445920B5
:10056C0020202000434845434B494E472E2E2E2039
:10057C0020202020005041535320202020202020D8
:10058C00202020202000051C05220527052D0533E1
:02059C00053820
:1006B000014700013A00012600C100012C00014C55
:1006C000000121000139000448000000000422005C
:0C06D000000000042700000000012B00C7
:10068000758038D2A57F057E00120692C2A57F082C
:020690007E00EA
:10069200D3EF9400EE940040147D727C00ED1D7047
:0D06A200011CED4C70F7EF1F70E61E80E3A9
:0106AF002228
:0E073400E4F580D2A6C2A6F580D2A7C2A72205
:1006DD00C290C2918F807F017E00120692D2A57FBB
:0F06ED00017E00120692C2A57F017E00020692D6
:1006FC00D290C2918F807F017E00120692D2A57F8C
:0F070C00017E00120692C2A57F017E00020692B6
:100618007F647E00120692C290C291120680120672
:10062800801206807F381206DD7F081206DD7F0102
:100638001206DD7F057E001206927F061206DD7F18
:040648000C0206DDBD
:10064C008B0A8A0B890CEF70047F8080027FC0EFCD
:10065C002DFF1206DDAB0AAA0BA90C12011C6013AC
:10066C00050CE50C7002050B14F912011CFF1206A7
:04067C00FC80E222FA
:06059E008B1C8A1D891E62
:1005A400E4F51F7FC01206DDAB1CAA1DA91E851F22
:1005B40082758300120135FF600EE51FC39410504D
:1005C400071206FC051F80E0E51FC3941050097F45
:0805D400201206FC051F80F057
:0105DC0022FC
:10000E005389F0438901758CFC758A66D2A9D28C0E
:03001E00D2AF223C
:03000B000205DD0E
:1005DD00C0E0C0D075D000C004C005C006C007750E
:1005ED008CFC758A66AF4BAE4AAD49AC48EF240121
:1005FD00F54BE43EF54AE43DF549E43CF548D007BA
:0B060D00D006D005D004D0D0D0E032E1
:10071B0053890F438920758DFD758BFDD28E75988E
:09072B005053877FD2ACD2AF22FB
:0300230002017364
:0F017300C0E0C0F0C0D075D000C000C006C0070B
:1001820020980302024DC298AF998F993099FDC20F
:1001920099BF2406754C0002024ABF2305D2000211
:1001A200024DE521702FEF6457600FEF6443600A40
:1001B200EF64506005EF644E701BBF57047E0080F1
:1001C20010BF43047E018009BF50047E0280027E7C
:1001D200038E2C8076E52C64037070BF3B1DE54CCA
:1001E200C394065014E54C25E0243BF87600E54C18
:1001F20025E0243CF87600054C804DBF3A05752178
:10020200018048EFC394304042EFD39439503CE52B
:050212004C9400403691
:10021700EF24D0F508E521700BE54C25E02439F8EB
:10022700A6088022E521B4010885083975210280D6
:1002370015E53975F00AA42508FFE54C25E0243AB1
:06024700F8A60775210076
:0D024D00D007D006D000D0D0D0F0D0E032E5
:10025A00E4F51BE53A70097BFF7A05793D02031D37
:10026A00AF1B051B740A2FF8764EAF1B051B740AC9
:10027A002FF87647AF1B051B740A2FF87620E52660
:10028A0025E0242DF8E6FFC394065039EF25E02433
:10029A0092F582E43405F583E493FE740193FF8FAB
:1002AA00828E83E493601EE51BC3941050170FEFF0
:1002BA0070010E14F582E493FDAC1B051B740A2C25
:1002CA00F8A60580DAAF1B051B740A2FF87620E51D
:1002DA002625E0242EF8E6FF75F00A842430FEADC8
:1002EA001B051B740A2DF8A606EF75F00A84E5F0C3
:1002FA002430FFAE1B051B740A2EF8A607AF1B0598
:10030A001B740A2FF87625740A251BF8E4F6FB7A83
:06031A0000790A12059EA5
:0103200022BA
:1003E100C2ACC200D2AC852C47E54764037046F528
:1003F10009E509C3954C502BE509C394065024E542
:100401000975F002A4FF243BF9E4FAFBC001742D45
:100411002FF9E4A801FCFDD001FE7F021200F605D0
:100421000980CEE54CD3940640047F068002AF4C90
:100431008F3AE4F5267BFF7A05794EE4FDFF12063B
:100441004CE54714601214601714601F2403701EDA
:100451007BFF7A05795F800E7BFF7A0579708006D4
:100461007BFF7A05798112059E800312025AE547C6
:10047100B40203C38001D39292D294E4F52BAF4B23
:0E048100AE4AAD49AC488F258E248D238C22C7
:01048F00224A
:1003210012073412061812000E12071BE4F547D209
:1003310092D2947BFF7A05794EFDFF12064C7BFF2A
:100341007A05795F12059E3000031203E1E547B497
:100351000347E53AD394014040E54B9525FFE54A33
:100361009524FEE5499523FDE5489522FCE47BDCD7
:100371007A05F9F8D3120162501FAF4BAE4AAD496D
:10038100AC488F258E248D238C220526E526C39526
:100391003A4003E4F52612025AE547B403A9C3E53E
:1003A1004B952AFFE54A9529FEE5499528FDE54843
:1003B1009527FCE47BF47A01F9F8D31201625087A6
:1003C100AF4BAE4AAD49AC488F2A8E298D288C2778
:1003D100632B01E52B6003C38001D3929402034890
:0300000002049067
:0C049000787FE4F6D8FD75814C0204D79B
:10002600E709F608DFFA8046E709F208DFFA803EBC
:1000360088828C83E709F0A3DFFA8032E309F608A9
:10004600DFFA8078E309F208DFFA807088828C8311
:10005600E309F0A3DFFA806489828A83E0A3F608C5
:10006600DFFA805889828A83E0A3F208DFFA804C9F
:1000760080D280FA80C680D4806980F28033801076
:1000860080A680EA809A80A880DA80E280CA8033DF
:1000960089828A83ECFAE493A3C8C582C8CCC58357
:1000A600CCF0A3C8C582C8CCC583CCDFE9DEE78027
:1000B6000D89828A83E493A3F608DFF9ECFAA9F0A6
:1000C600EDFB2289828A83ECFAE0A3C8C582C8CCFC
:1000D600C583CCF0A3C8C582C8CCC583CCDFEADE15
:1000E600E880DB89828A83E493A3F208DFF980CC77
:1000F60088F0EF60010E4E60C388F0ED2402B40470
:100106000050B9F582EB2402B4040050AF23234516
:06011600822390007673C5
:10011C00BB010689828A83E0225002E722BBFE02E1
:09012C00E32289828A83E4932214
:10013500BB010CE58229F582E5833AF583E022507F
:1001450006E92582F8E622BBFE06E92582F8E222C9
:0D015500E58229F582E5833AF583E49322E3
:10016200EB9FF5F0EA9E42F0E99D42F0E89C45F0F3
:01017200226A
:10049C00020321E493A3F8E493A34003F68001F252
:1004AC0008DFF48029E493A3F85407240CC8C33361
:1004BC00C4540F4420C8834004F456800146F6DF30
:1004CC00E4800B01020408102040809006B0E47E0A
:1004DC00019360BCA3FF543F30E509541FFEE49325
:1004EC00A360010ECF54C025E060A840B8E493A3EC
:1004FC00FAE493A3F8E493A3C8C582C8CAC583CA17
:10050C00F0A3C8C582C8CAC583CADFE9DEE780BECE
:0106DC00001D
:00000001FF
